:020000040800F2
:10000000E80A0020450100088D1A00086D16000856
:10001000D9180008A90D0008D3300008000000001E
:10002000000000000000000000000000FD220008A9
:10003000A50F0008000000009120000851240008CE
:100040005F0100085F0100085F0100085F01000810
:100050005F0100085F0100085F0100085F01000800
:100060005F0100085F0100085F0100085F010008F0
:100070005F0100085F0100085F0100085F010008E0
:100080005F0100085F0100085F0100085F010008D0
:100090005F0100085F0100085F0100083D110008D2
:1000A0005F010008F52600085F0100085F010008F5
:1000B0005F0100085F010008352800085F010008A3
:1000C0005F0100085F0100085F0100085F01000890
:1000D0005F010008552E00085F0100085F0100085D
:1000E000A90F00085F0100085F0100085F01000818
:1000F0005F0100085F0100085F0100085F01000860
:100100005F0100085F0100085F0100085F0100084F
:100110005F0100085F0100085F0100085F0100083F
:100120005F0100085F0100085F0100085F0100082F
:10013000DFF80CD000F08CFC00480047493E000876
:10014000E80A00200648804706480047FEE7FEE729
:10015000FEE7FEE7FEE7FEE7FEE7FEE7FEE7FEE777
:1001600055240008310100082DE9F0410024061B48
:10017000254671F1000605DA01240027D0EB0700BF
:1001800067EB0101161E73F1000605DA0027D2EBBA
:100190000702012567EB030300F034FB86460E4699
:1001A00017469C46AC4204D00025D0EB050E65EB0B
:1001B000010624B10020D2EB000760EB030C70466F
:1001C00031463A466346BDE8F081F0B480EA010268
:1001D000D40F4200B2EB410F02D20246084611464C
:1001E0004A0042D0C30DDDB2C1F3C752AD1A202D73
:1001F00035DAC1F3160141F4000204B15242C5F1EF
:10020000200602FA06F12A411044B3EBD05F23D056
:10021000C4B1012DA0EBC35009DCF0BC4FF000428B
:1002200002EAC352DBB200F5000000F056BB40000A
:1002300000F1807000EBC350A0F1807040EAD170F3
:10024000490009E0490841EAC071A0EBC35000F53C
:100250000000400800EBC350F0BC00F035BB614229
:10026000012202EB4101001BF6E7F0BC704781F070
:100270000041AAE780F00040A7E780EA010210B53C
:1002800002F00043400022D04A001FD0010E01EBD3
:100290001261C0F35600C2F3560240F4000042F46B
:1002A0000002A0FB022000047F39140400D0401C8F
:1002B00050EA124001D44000491EC2B20C0604EBC1
:1002C000D010401C4008802A02D003E0002010BD5E
:1002D00020F00100002900DA0020184310BD30B4DE
:1002E00080EA010202F0004530F0004221F00040B7
:1002F00013D090B1C30DD40DC2F31601C0F3160094
:10030000E41A41F4000140F400027D34914201D32B
:10031000641C00E04900002C02DA30BC0020704769
:100320004FF400000023914201D3891A034340088F
:100330004FEA4101F7D151B1914202D14FF0004152
:1003400005E002D24FF0010101E06FF0010103EB83
:10035000C450284430BC00F0B7BA2DE9FE4F8046A7
:1003600081EA0300C00F0C46009021F0004123F009
:100370000045B8EB0200A94105D24046214690460F
:100380001C460B46024623F00040104347D0270D81
:10039000C7F30A00C3F30A510290401A01904028A3
:1003A0006BDAC3F3130040F4801B0098924620B12F
:1003B0000023D2EB030A63EB0B0B01985946C0F103
:1003C0004002504600F04FFA06460D465046594648
:1003D000019A00F067FA10EB08006141002487EAF7
:1003E000115284EAE7731A4340D0009A62B3019A2B
:1003F000012A4FEA075215DC001B61EB02014FF0A6
:10040000004202EA0752CDE90042001C41F580118A
:1004100032462B4600F09EFA03B0BDE8F08F40460E
:100420002146F9E7001B61EB0201001C41F5801336
:1004300000185B412018A2F5001747EB030140EAC2
:10044000D570B6196D4111E06D084FEA360645EAE0
:10045000C0754FEA0752001B61EB0201001C41F519
:10046000801149084FEA30000019514132462B46AD
:1004700003B0BDE8F04F00F05EBA009801224000E2
:100480000023D0EB020263EBE073009821464FEAB1
:10049000E074B8EB000061EB0401E9E783F000438E
:1004A0005BE781F0004158E72DE9FE4F81EA030444
:1004B00004F0004421F0004100944FF0000B23F0C1
:1004C000004350EA01045ED052EA03045BD0C3F358
:1004D0000A54C1F30A552C44A4F2F3340194A0FB4E
:1004E0000254C1F3130141F48011C3F3130343F425
:1004F000801301FB024400FB034E840A970A44EA7E
:10050000815447EA8357A4FB076802958D0A05FBCF
:1005100007854FEA932C04FB0C542705029D4FEAF4
:10052000065847EA1637B5EB08056EEB070C870E41
:10053000920E47EA811742EA8312A7FB0201B6EB4B
:100540000B0164EB00042B0D43EA0C335E1844EB03
:100550001C50DA465146E7FB0201C5F313044FEA8B
:100560000B3343EA14534FEA0432019C43EA060377
:10057000A4F10C040294009CCDE900B400F0EAF967
:1005800003B0BDE8F08F00200146F9E72DE9F04DFA
:1005900081EA030404F0004B21F0004514464FF0BB
:1005A000000A23F0004150EA050220D054EA01027B
:1005B0001DD0C5F30A570246C5F31303C1F3130058
:1005C000C1F30A5640F4801543F48013A7EB0608E4
:1005D000101BD64608F2FD3873EB050002D308F174
:1005E000010801E092185B41B8F1000F03DA002026
:1005F0000146BDE8F08D00204FF480110646844688
:100600000EE0171B73EB050705D3121B63EB050305
:1006100006434CEA010C49084FEA300092185B414E
:1006200050EA0107EDD152EA030012D082EA040039
:1006300083EA0501084305D0101BAB4106D2012215
:10064000002306E000224FF0004302E06FF00102B9
:1006500053101AEB06004CEB085110EB0A0041EB6B
:100660000B01BDE8F04D00F066B9C10F80EAE07003
:100670000844CA079623002100F02FB996230022D0
:10068000114600F02AB90EB540F233410291002123
:10069000CDE900110A460B4600F05CF903B000BD3D
:1006A00000F0004220F00040C10DC0F3160040F4FD
:1006B00000007F2901DA00207047962903DCC1F190
:1006C0009601C84001E096398840002AF4D04042A3
:1006D000704710B500F0004420F00040C20DC0F398
:1006E000160040F400007F2A02DA0020014610BD07
:1006F0000021962A03DCC2F19602D04002E0963A2D
:1007000000F0B1F8002CF2D00023D0EB030063EB33
:10071000010110BD70B5C1F30A5201F0004500247B
:10072000C1F3130140F2FF3341F480119A4201DA20
:10073000002070BD40F233439A42A2F2334203DC00
:10074000524200F09FF800E090402C43F1D040422C
:1007500070BD00F0004230F000400AD0C10D01F53C
:100760006071C0F3160042EA0151C208400711430C
:10077000704700200146704701F0004330B421F07B
:10078000004150EA010206D00A0DA2F56072C1F3E1
:100790001301002A02DC30BC00207047440F44EAF9
:1007A000C104C100E01830BC00EBC25000F08CB8AE
:1007B000002801DBC0F10040002901DBC1F100414C
:1007C00081427047002801DBC0F10040002901DBB5
:1007D000C1F100418842704730B50B460146002008
:1007E0002022012409E021FA02F59D4205D303FAF3
:1007F00002F5491B04FA02F52844151EA2F1010274
:10080000F1DC30BD2DE9F05F0546002092469B46A5
:1008100088460646814640241BE028464146474616
:10082000224600F02FF853465A46C01A914110D381
:1008300011461846224600F016F82D1A67EB0108FB
:100840004F4622460120002100F00DF817EB000969
:100850004E41201EA4F10104DFDC484631462A4601
:100860004346BDE8F09F202A04DB203A00FA02F15B
:10087000002070479140C2F1200320FA03F319438E
:1008800090407047202A04DB203A21FA02F0002130
:10089000704721FA02F3D040C2F120029140084390
:1008A00019467047202A06DBCB17203A41FA02F09E
:1008B00043EAE07306E041FA02F3D040C2F12002BD
:1008C00091400843194670470029A8BF7047401C53
:1008D000490008BF20F00100704710B4B0FA80FC56
:1008E00000FA0CF050EA010404BF10BC704749B193
:1008F000CCF1200421FA04F411FA0CF118BF012103
:1009000021430843A3EB0C01CB1D4FEA00614FEAE2
:10091000102042BF002010BC704700EBC3501044B1
:100920000029A4BF10BC7047401C490008BF20F03C
:10093000010010BC704710B5141E73F1000408DAF2
:10094000401C41F1000192185B411A4301D120F093
:10095000010010BD2DE9F04D92469B4611B1B1FA50
:1009600081F202E0B0FA80F220329046FFF77BFF7E
:1009700004460F4640EA0A0041EA0B0153465A4634
:10098000084313D0114653EA010019D0C8F14002C0
:100990005046FFF777FF05460E46504659464246F9
:1009A000FFF761FF084305D0012004E020463946E7
:1009B000BDE8F08D0020054346EAE0762C4337433E
:1009C0000A986305E40AA0EB08000022FD0A44EA45
:1009D00047540A3002D500200146E9E70105101905
:1009E0006941DDE9084500196941BDE8F04DA2E71C
:1009F000C1F30A52C1F3130140F2FF3341F48011F5
:100A00009A4202DA00200146704740F233439A428C
:100A1000A2F2334202DC5242FFF734BFFFF723BF9A
:100A200030B5041E71F1000404DB4FF00044404275
:100A300064EB0101141E73F1000405DB1C464FF04A
:100A40000043524263EB0403994208BF904230BD19
:100A5000064C074D06E0E06840F0010394E807000B
:100A600098471034AC42F6D3FFF766FB1C8E0008A3
:100A70003C8E000870B58C1810F8015B15F0070368
:100A800001D110F8013B2A1106D110F8012B03E027
:100A900010F8016B01F8016B5B1EF9D12B0705D42F
:100AA0000023521E0DD401F8013BFAE710F8013B78
:100AB000CB1A921C03E013F8015B01F8015B521E94
:100AC000F9D5A142D8D3002070BD21B1826842F08F
:100AD0000102826003E0826822F0010282607047B6
:100AE00010B504461248844208D10121401501F096
:100AF000FDFA0021601501F0F9FA17E00D48844273
:100B000008D10121001501F0F1FA0021201501F0B2
:100B1000EDFA0BE00848844208D10121C80301F036
:100B2000E5FA00214FF4004001F0E0FA10BD0000AA
:100B30000024014000280140003C01400146002003
:100B40008A6802F004020AB1012000E00020704728
:100B50000146C86C80B270470246002013680B4003
:100B60000BB1012000E000207047014600208A6898
:100B700002F008020AB1012000E0002070470000E6
:100B800030B502460020002350680F4C20400D79FC
:100B90000C6844EA05242043506090680B4C2040C8
:100BA000D1E902542C434D7944EA45042043906036
:100BB000D06A20F470000C7C641EE4B2234340EA47
:100BC0000350D06230BD0000FFFEF0FFFDF7F1FFE3
:100BD000F0B504460D4600200021092D11DDE06826
:100BE000A5F10A0606EB4607072606FA07F1884331
:100BF000A5F10A0606EB460603FA06F10843E06093
:100C00000CE0206905EB4507072606FA07F1884343
:100C100005EB450603FA06F108432061072A0FDABF
:100C2000606B561E06EB86071F2606FA07F18843FF
:100C3000561E06EB860605FA06F10843606322E0BD
:100C40000D2A0FDA206BD61F06EB86071F2606FA41
:100C500007F18843D61F06EB860605FA06F108431E
:100C6000206310E0E06AA2F10D0606EB86071F265E
:100C700006FA07F18843A2F10D0606EB860605FA8F
:100C800006F10843E062F0BD816841F0080181602F
:100C9000704721B1826842F4A002826003E082685A
:100CA00022F4A00282607047816841F004018160F3
:100CB0007047000000B587B0012140F2046001F0E8
:100CC00005FA4FF4004001F0E5F94820ADF80400C2
:100CD00000208DF8070001A92D4800F039FB2D48B0
:100CE000FFF7FEFE002002908DF80C008DF80D003D
:100CF0004FF4602004900020059001208DF818002A
:100D000002A92448FFF73CFF01212248FFF7DDFE3E
:100D10002048FFF7B9FF00BF1E48FFF726FF002855
:100D2000FAD11C48FFF7C0FF00BF1A48FFF706FFC3
:100D30000028FAD11848FFF7D3FE002002908DF862
:100D40000C008DF80D004FF46020049000200590F9
:100D500001208DF8180002A90F48FFF711FF0121AB
:100D60000D48FFF7B2FE0C48FFF78EFF00BF0A48A0
:100D7000FFF7FBFE0028FAD10748FFF795FF00BFF9
:100D80000548FFF7DBFE0028FAD107B000BD0000E0
:100D9000000801400024014000280140014908608A
:100DA0007047000000860D4200BFFEE710B501212C
:100DB0002348006800F0A4F822480068FFF755FCBB
:100DC0000446022100F09CF80321002000F098F86E
:100DD00004211D48006800F093F805211B480068B5
:100DE00000F08EF806211A48006800F089F8072103
:100DF0001848006800F084F8032000F035F8164920
:100E0000087000201549087012E000BF14480088DF
:100E100000F040000028F9D0124810490978405CE1
:100E20000F49091D08800D480078401C0B490870C7
:100E30000A480078084909788842E6DB10BD0000BE
:100E400018000020080000201C00002020000020C6
:100E5000240000202800002036010020340100205A
:100E600000380140BC06002001460A2900DC09B90F
:100E7000002070472420214A10700B293CD2DFE863
:100E800001F03B060B10151A1F24292F35000520F1
:100E90001A4A50710620ECE70920184A50720A20BD
:100EA000E7E70D20154A50730E20E2E71120134AA0
:100EB00050741220DDE71520104A50751620D8E72F
:100EC00019200E4A50761A20D3E71D200B4A50777E
:100ED0001E20CEE72120094A82F821002220C8E7FF
:100EE0002520064A82F825002620C2E72920034A49
:100EF00082F829002A20BCE70020BAE7BC060020BF
:100F000013B50C460A2C00DC04B91CBD0B2C43D2D3
:100F1000DFE804F042060C12181E242A30363C008A
:100F200001221F49684600F0E5F935E005221C4919
:100F3000684600F0DFF92FE009221949684600F001
:100F4000D9F929E00D221649684600F0D3F923E0CB
:100F500011221349684600F0CDF91DE01522104911
:100F6000684600F0C7F917E019220D49684600F0FD
:100F7000C1F911E01D220A49684600F0BBF90BE0F7
:100F800021220749684600F0B5F905E02522044909
:100F9000684600F0AFF900BF00BF00BFB5E7000032
:100FA000BC0600207047000010B5052002F0C0FE0E
:100FB0005748006868BB4FF07E5156480068FFF7FD
:100FC000F7FB08D15448016854480068FFF74FF90F
:100FD000524908602DE04FF080414E480068FFF70D
:100FE000E7FB08D14E4801684E480068FFF73FF91B
:100FF0004C4908601DE04C4946480068FFF7D8FBA3
:1010000008D14A4801684A480068FFF730F9484962
:1010100008600EE04FF081413E480068FFF7C8FBD2
:1010200007D14448016844480068FFF720F9424965
:1010300008603748001F006868BB4FF07E51354894
:101040000068FFF7B5FB08D13348016833480068F2
:10105000FFF7BBF8314908602DE04FF080412D4883
:101060000068FFF7A5FB08D12D4801682D480068EE
:10107000FFF7ABF82B4908601DE02B4925480068B5
:10108000FFF796FB08D12948016829480068FFF757
:101090009CF8274908600EE04FF081411D48006828
:1010A000FFF786FB07D12348016823480068FFF754
:1010B0008CF821490860002118480068FFF778FB88
:1010C00002D8002015490860002116480068FFF783
:1010D0006FFB02D800201349086000211448006803
:1010E000FFF766FB02D80020114908600021124872
:1010F0000068FFF75DFB02D800200F4908604FF43D
:10110000006000F057F84FF4805000F053F810BD25
:10111000300121423C000020400000202C00002033
:101120004400002030000020000040404800002023
:10113000340000204C0000203800002070B505204D
:1011400002F0F6FD1748006868B91748007808B93A
:10115000012000E00020144908700846007810B90A
:101160000020124908700F480830006898B91048EC
:101170004FF07E5105680068FFF727F80C492C46B0
:1011800008604FF081412046FFF712FB03D14FF07A
:101190007E5007490860202000F00CF8802000F005
:1011A00009F870BD1401214200000020B1000020A8
:1011B0003C00002001490860704700001404014011
:1011C000002123498279002A3AD00A46126803682E
:1011D0009A430B461A600A1D126803689A430B1D56
:1011E0001A60027911440A6803681A430A60184AAF
:1011F0000832126803689A43154B08331A601A1DA7
:10120000126803689A43124B0C331A604279102A11
:101210000ED11A1F126803681A430D4B08331A6067
:101220001A1D126803681A43094B0C331A600DE04B
:101230000749427911440A6803681A430A6005E0C5
:10124000027911440A6803689A430A6070470000F3
:101250000004014000B587B00121042000F026FF02
:101260000121082000F032FFC020ADF8000004206A
:101270008DF8030069461D4800F06AF804A801F0E3
:1012800069FC0020ADF810004FF6FF70ADF81400B7
:101290000020ADF81600ADF8120004A9144801F0C2
:1012A00007FC00231A460321114801F0EDFA01A8BA
:1012B00001F072FB0A20ADF80C0001A90C4801F006
:1012C00015FB01210A4801F0CDFA01221146084818
:1012D00001F06BFB42F21071054801F0BAFB0121ED
:1012E000034801F0C5FA07B000BD0000000C014042
:1012F0000008004030B503461C788C545D78541CBF
:101300000D559D78941C0D55DD78D41C0D5530BDC0
:1013100030B500228B071C0F0F2303FA04F20B4B8E
:101320008C1053F824309343084C8D1044F825302A
:1013300023468C1053F824308C07240F00FA04F451
:101340002343024C8D1044F8253030BD0800014085
:101350002DE9F0410246002500260020002300244C
:10136000002791F803C00CF00F0591F803C00CF0B2
:10137000100CBCF1000F03D091F802C04CEA050537
:1013800091F800C0BCF1000F31D0146800202BE0B0
:101390004FF0010C0CFA00F3B1F800C00CEA0306A0
:1013A0009E4220D183004FF00F0C0CFA03F7BC4390
:1013B00005FA03FC4CEA040491F803C0BCF1280FC1
:1013C00006D14FF0010C0CFA00FCC2F814C00AE080
:1013D00091F803C0BCF1480F05D14FF0010C0CFA95
:1013E00000FCC2F810C0401C0828D1D31460B1F82A
:1013F00000C0BCF1FF0F34DD546800202EE000F186
:10140000080C4FF0010808FA0CF3B1F800C00CEA20
:1014100003069E4221D183004FF00F0C0CFA03F714
:10142000BC4305FA03FC4CEA040491F803C0BCF188
:10143000280F05D100F1080C08FA0CF8C2F8148046
:1014400091F803C0BCF1480F07D100F1080C4FF030
:10145000010808FA0CF8C2F81080401C0828CED306
:101460005460BDE8F0814161704701617047000040
:1014700010B50446062C06D10723012221460D484B
:10148000FFF7A6FB07E0032C05D10023012221462C
:101490000848FFF79DFB01210648FFF7FAFB00BF54
:1014A00002210448FFF758FB0028F9D00148FFF754
:1014B0004FFB10BD0024014010B50446062C06D198
:1014C0000723012221460D48FFF782FB07E0032C8A
:1014D00005D10023012221460848FFF779FB0121AD
:1014E0000648FFF7D6FB00BF02210448FFF734FB94
:1014F0000028F9D00148FFF72BFB10BD0028014060
:101500002DE9F04107460C460025002608E0384644
:10151000FFF7AEFF0544C82002F030FC701CC6B2D5
:10152000A642F4DBB5FBF4F080B2BDE8F081000028
:101530002DE9F041044625464FF08B412846FEF741
:10154000CEFE07460349FEF798FE06463046BDE844
:10155000F08100000000B4432DE9F0470446254621
:101560000E480068FFF781F882462946FEF782FEA2
:1015700081464FF08B41FEF7B2FE80460849FEF7E8
:101580007CFE07460749FEF778FE06462846FFF729
:1015900087F8024908603046BDE8F0875400002013
:1015A0000000B4430000484370B510480068401C78
:1015B0000E490860052817DD0D4801680D480068D0
:1015C000FEF755FE0646FFF76BF8054600F05CF99E
:1015D0000446FFF74AF808490860064800680449CD
:1015E000086000200149086070BD0000F000002084
:1015F000F400002018000020E00000202DE9F04F4A
:1016000087B00620FFF758FF0190FFF73CF88046AF
:101610004FF06632104BFEF747FF00220F4BCDE92B
:101620000201FEF741FF00220D4BCDE90401FEF758
:101630003BFF064600220B4BFEF7A8FF04460022A4
:10164000094BFEF7A3FF8246FFF764F80690069861
:1016500007B0BDE8F08F000066660A400000264033
:10166000000059400000F03F0000B04000BFFEE71E
:1016700001464906084A926942F00102064B9A6106
:10168000064A526822F0E062044B5A601A465268D9
:101690000A435A60704700000010024000000140F9
:1016A00008B50121042000F011FD40F6A400ADF8BA
:1016B000000048208DF8030069460248FFF748FE05
:1016C00008BD00000008014010B54FF4826464209A
:1016D00002F0A4FA2F49086008460068012801D1E9
:1016E0002D4908602B480068022801D12A4908606A
:1016F00029480068012812D128480068001D2749A0
:10170000086027480068001D2549086008460068F1
:10171000A04204D1002020490860214908601E48E9
:101720000068022812D11D480068001F1B4908608C
:101730001B480068001D1A49086008460068A0425E
:1017400004D10020144908601549086000F072F8BF
:1017500001280BD142F2107010490860114800783E
:1017600008B9012000E000200E4908700E480078FA
:1017700001280DD10B480078012803D100200B4926
:10178000086005E00748007810B9012007490860A3
:1017900010BD0000FC000020000100200C00002013
:1017A00004010020D8000020000000209001214208
:1017B00008B50121042000F089FC1020ADF80000DC
:1017C0008DF8030003208DF8020069460348FFF7F7
:1017D000BFFD10210148FFF748FE08BD0008014089
:1017E0001148008840B91148006828B9104800889D
:1017F000401C0F49088002E000200D4908800C4879
:101800000088142807DD01200749088000200849C6
:1018100008800120704704480088012802D1002078
:10182000014908800020F5E7A20000201C012142A8
:10183000A00000201148008840B91148006828B96C
:1018400010480088401C0F49088002E000200D4924
:1018500008800C480088C82807DD01200749088057
:1018600000200849088001207047044800880128AA
:1018700002D10020014908800020F5E7A6000020E1
:1018800008012142A400002070B503460022012176
:1018900008E0104830F81150481E0E4E26F810503F
:1018A000481CC1B20429F4DB18B20A4DE8800021BB
:1018B00005E0084830F911000244481CC1B204296F
:1018C000F7DB1046D51702EB9575AD102CB220460C
:1018D00070BD00001C01002000BFFEE70EB5012115
:1018E000084600F0F3FBFFF7DBFE05210020FFF7C1
:1018F0000FFD2020019000208DF808000C208DF8AD
:10190000090001208DF80A0001A8FFF759FC072102
:101910000020FFF7FDFC8020019000208DF80800DA
:101920000C208DF8090001208DF80A0001A8FFF7AE
:1019300047FC0B210020FFF7EBFC4FF40060019007
:1019400000208DF808000C208DF8090001208DF88A
:101950000A0001A8FFF734FC0C210020FFF7D8FC97
:101960004FF48050019000208DF808000C208DF875
:10197000090001208DF80A0001A8FFF721FC1720BB
:101980008DF8000002208DF801008DF80200012082
:101990008DF80300684600F07BF828208DF80000E1
:1019A00002208DF801008DF8020001208DF803005F
:1019B000684600F06DF80EBD08B50121082000F062
:1019C00085FB4FF44050ADF8000010208DF8030067
:1019D00003208DF8020069460448FFF7B9FC4FF474
:1019E00040510248FFF73FFD08BD0000000C0140D8
:1019F00030B589B005460C46FFF7DEFF0121022015
:101A000000F054FB0121082000F060FB0220ADF83B
:101A1000200018208DF8230003208DF8220008A94B
:101A20001848FFF795FCADF81850ADF814400120A8
:101A3000ADF81A000020ADF8160005A9124801F013
:101A400037F86020ADF804000120ADF80600002052
:101A5000ADF80A00ADF80C004FF40070ADF81200BC
:101A600001A9094800F0AAFF0821074800F0E4FF97
:101A70000121054800F0EAFE0121034800F0F8FECC
:101A800009B030BD000C0140000400407047000068
:101A900070B5002100230F22C47804B3154C2468CC
:101AA00004F4E064C4F5E064210AC1F10403CA400F
:101AB000447804FA03F184781440214309010E4C60
:101AC0000678A155047804F01F050124AC40057880
:101AD0006D11AD0005F1E025C5F8004109E004787D
:101AE00004F01F050124AC40044D0678761145F83A
:101AF000264070BD0CED00E000E400E080E100E075
:101B000002490143024A1160704700000000FA05D3
:101B10000CED00E030B500240CE0002506E00020CC
:101B2000074901EBC5010855681CC5B2802DF6DBDD
:101B3000601CC4B2082CF0DB00F0E2F830BD0000FD
:101B400008020020F0B5144600267F2801DC3F295A
:101B500000DDF0BD0B46CF1701EB5777FF10C7F143
:101B60000707FAB2CF1701EB5777FF10A1EBC707B2
:101B7000FDB2C5F107070123BB40DEB24CB10A4BF1
:101B800003EBC0039B5C3343074F07EBC007BB5419
:101B900008E0054B03EBC0039B5CB343024F07EB2C
:101BA000C007BB5400BFD4E70802002008B50121DC
:101BB000082000F08BFA3820ADF8000010208DF8D6
:101BC000030002208DF8020069464948FFF7C0FB78
:101BD0000121042000F07AFA4FF40040ADF8000033
:101BE00002208DF8020010208DF80300694641485C
:101BF000FFF7AEFB012000F045FA002000F0F0FAFC
:101C00000020FFF7CBF8002000F03CFA00203A4912
:101C10000860642002F08CF801203849C1F88C017A
:101C20000021AE2000F002FA0021D52000F0FEF9DC
:101C30000021502000F0FAF90021A82000F0F6F968
:101C400000213F2000F0F2F90021D32000F0EEF94E
:101C50000021084600F0EAF90021402000F0E6F9F2
:101C600000218D2000F0E2F90021142000F0DEF9BF
:101C70000021202000F0DAF90021022000F0D6F93E
:101C80000021A12000F0D2F90021C02000F0CEF9FF
:101C90000021DA2000F0CAF90021122000F0C6F974
:101CA0000021812000F0C2F90021EF2000F0BEF9F0
:101CB0000021D92000F0BAF90021F12000F0B6F996
:101CC0000021DB2000F0B2F90021302000F0AEF955
:101CD0000021A42000F0AAF90021A62000F0A6F916
:101CE0000021AF2000F0A2F9FFF714FF08BD0000AB
:101CF000000C0140000801408C81214200802142FB
:101D000030B500241CE004F1B001C8B2002100F09D
:101D10008DF90021084600F089F90021102000F01B
:101D200085F9002508E0084901EBC501085D01219E
:101D300000F07CF9681CC5B2802DF4DB601CC4B2D5
:101D4000082CE0DB30BD0000080200202DE9F04F38
:101D500080460C4615461E46A346A5F12000C5B296
:101D600000273EE00C2E07D105EB45001F4901EB93
:101D7000800010F8079004E01D4800EB051010F8F3
:101D800007904FF0000A26E009F0800028B12146B4
:101D90004046099AFFF7D6FE09E0099808B90120E4
:101DA00000E00020024621464046FFF7CBFE4FEA06
:101DB00049604FEA1069601CC4B2A4EB0B00B0424A
:101DC00005D15C4608F1010000F0FF0806E00AF1C9
:101DD000010000F0FF0ABAF1080FD5DB00BF781C44
:101DE000C7B2B742BEDBBDE8F08F0000784A0008FA
:101DF000EC4E00082DE9F04F07460C4690461D4674
:101E0000A346002631E01B4800EBC81010F82690CE
:101E10004FF0000A23E009F0800028B12A4621464D
:101E20003846FFF78FFE08E00DB9012000E00020E2
:101E3000024621463846FFF785FE4FEA49604FEAE1
:101E40001069601CC4B2A4EB0B00102803D15C46DF
:101E5000781CC7B206E00AF1010000F0FF0ABAF1EF
:101E6000080FD8DB00BF701CC6B2202ECBDBBDE84C
:101E7000F08F0000DC5400082DE9F04F07460C46B7
:101E800090461D46A346002633E0C8EBC8001B4918
:101E900001EB001010F826904FF0000A23E009F043
:101EA000800028B12A4621463846FFF74BFE08E05D
:101EB0000DB9012000E00020024621463846FFF718
:101EC00041FE4FEA49604FEA1069601CC4B2A4EBBE
:101ED0000B00102803D15C46781CC7B206E00AF15B
:101EE000010000F0FF0ABAF1080FD8DB00BF701C38
:101EF000C6B21C2EC9DBBDE8F08F0000DC5F000815
:101F00002DE9FF5F86B0804616461F46DDE9149432
:101F10000020059000210846711A77EB000016DAC0
:101F20000022764262EB0707012023462D22009013
:101F300040460799FFF70AFF204604EBD07108EBF3
:101F4000610101F0FF08A9F1010000F0FF0900257F
:101F500044E0A9EB0500401EC1B20A2001F0D5FF04
:101F6000002102460B46CDE9000130463946FEF716
:101F7000FBF80A220023CDE90201FEF7F5F802F092
:101F8000FF0A0598B8B9A9F10100A84213DDBAF11A
:101F9000000F0ED10120A34604EBDB71491001FBB9
:101FA00005810090C8B2234620220799FFF7CEFE94
:101FB00012E0012005900120A34604EBDB714910DB
:101FC00001FB05810090C8B20AF13001CAB2234674
:101FD0000799FFF7BBFE00BF681CC5B24D45B8DBD3
:101FE0000AB0BDE8F09F78B505460E46144618E0E5
:101FF0007A2D03DD002506F11000C6B23A2E04DD6D
:10200000002005460646FFF785FD01200090227856
:102010000C2331462846FFF799FE05F10800C5B2AA
:10202000641C20780028E3D178BD000010B50A4672
:102030001AB10123114C236002E000230F4C2360EE
:10204000002114E000230E4C236000F080031BB13C
:102050000123241F236003E00023094C241F236075
:102060000123074C23604306180E4B1CD9B20829E4
:10207000E8DB0123014C236010BD0000BC012142BC
:1020800094812142014908627047000000000E421D
:102090007047000001460020034A506820F4404089
:1020A00008435060704700000010024029B1064A02
:1020B000D2690243044BDA6104E0034AD2698243E5
:1020C000014BDA61704700000010024029B1064A56
:1020D00092690243044B9A6104E0034A9269824385
:1020E000014B9A61704700000010024029B1064A76
:1020F000D2680243044BDA6004E0034AD2688243A8
:10210000014BDA60704700000010024030B500213A
:102110000022002400232D4D6D6805F00C0121B133
:10212000042905D0082923D105E0294D056022E0C6
:10213000274D05601FE0254D6D6805F47012234D95
:102140006D6805F48034022505EB92421CB9214DDF
:10215000554305600BE01D4D6D6805F400351DB15C
:102160001C4D5543056002E0194D5543056002E0E2
:10217000174D056000BF00BF144D6D6805F0F001FC
:102180000909154D6B5C0568DD4045600F4D6D68B4
:1021900005F4E061090A104D6B5C4568DD4085601F
:1021A0000A4D6D6805F46051C90A0B4D6B5C4568BA
:1021B000DD40C560054D6D6805F44041890B074D54
:1021C0006B5CC568B5FBF3F5056130BD00100240DE
:1021D00000127A0000093D007000002080000020FD
:1021E00000210B4A11700A4A203A82F82010012877
:1021F00002D0042808D103E00121054A117004E04F
:102200000521034A117000E000BF00BF70470000C5
:10221000201002400146022904D0032907D00429D6
:102220000DD108E04FF08042928C10B209E0064ACE
:10223000128810B205E0054A128810B201E00020B1
:1022400000BF00BF70470000240400402408004085
:102250002DE9F05F044642F21071081BFEF705FA03
:1022600083460949FEF73BF88246FEF772FA0746B5
:10227000064A074BFEF718F90546FEF77DFA814638
:102280004846BDE8F09F000000007F45295C8FC2F2
:10229000F528DC3F2DE9FC5F824642F21071A1EB8C
:1022A0000A01114A1268881AFEF7DFF90F490090F7
:1022B000FEF715F88346FEF74CFA80460C4A0D4BA4
:1022C000FEF7F2F8064600220B4BFEF7EDF8044647
:1022D000FEF752FA019042F21070A0EB0A00024998
:1022E00008600198BDE8FC9F5800002000007F4571
:1022F000295C8FC2F528DC3F00006940704710B5AB
:1023000000F002F810BD00000CB500200190009014
:102310003348006840F480303149086000BF3048DD
:10232000006800F4003000900198401C0190009873
:1023300018B90198B0F5A06FF1D12948006800F4F0
:10234000003010B10120009001E0002000900098C2
:10235000012843D12348006840F01000214908605B
:102360000846006820F0030008600846006840F056
:10237000020008601A4840681949486008464068E9
:1023800048600846406840F48060486008464068FD
:1023900020F47C1048600846406840F4E81048602B
:1023A0000846006840F08070086000BF0C48006874
:1023B00000F000700028F9D00948406820F00300C0
:1023C000074948600846406840F00200486000BF86
:1023D0000348406800F00C000828F9D10CBD00004B
:1023E000001002400020024000B50246002A07DA31
:1023F00001200A49086000200949C1F8B40106E03B
:1024000000200649086001200549C1F8B4011046C2
:1024100001F074FD0349088000BD0000B081214235
:102420000080214240040040042808D14FF0E02100
:10243000096941F004014FF0E022116107E04FF01B
:10244000E021096921F004014FF0E0221161704799
:102450007047000010B51348006840F001001149B2
:10246000086008464068104908400E494860084620
:1024700000680E4908400B4908600846006820F4CF
:10248000802008600846406820F4FE0048604FF451
:102490001F008860FFF733FF4FF0006004490860B9
:1024A00010BD0000001002400000FFF8FFFFF6FE24
:1024B00008ED00E0F0B50C46154600220021068C20
:1024C0004FF6FE773E400684028B018C4FF60C7669
:1024D00032407E1C06EA03162E433243104EB042B1
:1024E0000ED0104EB0420BD0B0F1804F08D00E4E3F
:1024F000B04205D00D4EB04202D00D4EB04206D1D2
:102500004FF6FD76314044F00106314305E04FF6C9
:10251000F576314044F00106314302830184F0BD79
:10252000002C01400034014000040040000800403D
:10253000000C0040F0B50C46154600220021002694
:10254000078C4FF6EF7C07EA0C070784028B018C9F
:102550004FF6FF7707EA041640F6FF473A404FF67A
:10256000FF7707EA03373A434FF6FF7707EA052775
:102570003A43114FB8420ED0104FB8420BD0B0F1D1
:10258000804F08D00E4FB84205D00E4FB84202D04F
:102590000D4FB84206D14FF6DF77394046F01007AD
:1025A000394305E04FF65F77394044F0100739436F
:1025B00002830184F0BD0000002C01400034014082
:1025C0000004004000080040000C0040F0B50C463C
:1025D0001546002200210026078C4FF6FF6C07EA03
:1025E0000C070784828B018C4FF6FF7707EA0426DD
:1025F0004FF60C773A404FF6FF7707EA03172F4361
:102600003A43114FB8420ED0104FB8420BD0B0F140
:10261000804F08D00E4FB84205D00E4FB84202D0BE
:102620000D4FB84206D14FF6FF57394046F4807738
:10263000394305E04FF2FF57394044F4807739437E
:1026400082830184F0BD0000002C01400034014071
:102650000004004000080040000C0040F0B50C46AB
:102660001546002200210026078C4EF6FF7C07EA63
:102670000C070784828B018C4FF6FF7707EA04363C
:1026800040F6FF473A404FF6FF7707EA05273A43FF
:102690004FF6FF7707EA03373A43114FB8420ED09F
:1026A000104FB8420BD0B0F1804F08D00E4FB84257
:1026B00005D00E4FB84202D00D4FB84206D14DF6AC
:1026C000FF77394046F48057394305E047F6FF5716
:1026D000394044F48057394382830184F0BD0000BF
:1026E000002C01400034014000040040000800407C
:1026F000000C004070B501213D4800F0E6F80028CC
:102700006DD001213A4800F0B0F83A48007801282D
:102710000BD139480078401CC0B2374908700A28EC
:1027200003D100200870334908700420FFF772FDC0
:10273000324908600A210320FEF7E2FE0446FDF755
:102740009DFF2F490860FEF72FFF2C480068FFF718
:102750007FFD2C49086029480068FFF79BFD2A4946
:10276000086027480068FEF7E3FE2849086024480F
:102770000068FEF7F1FE2649086022480068FDF770
:10278000E8FF044622460B4622A1244800F0DCFC68
:102790001D480068FDF7DDFF044622460B461DA1DB
:1027A0001F4800F0D1FC19480068FDF7D2FF04462D
:1027B00022460B4617A11B4800F0C6FC14480068CF
:1027C000FDF7C7FF044622460B4612A1164800F04B
:1027D000BBFC00F0A5FC15480068FFF705FEFEF7FE
:1027E0000DFF13490860FEF76FFF002070BD000069
:1027F000002C014002000020010000200800002001
:10280000180000201C0000202000002024000020D0
:1028100028000020252E3466000000000806002055
:102820001C06002030060020440600208C000020FA
:1028300014000020044800880348008820F00100AC
:1028400001490880704700001008004021B102884B
:1028500042F08002028004E002884FF67F731A4043
:1028600002807047CA4302827047CA43028270479F
:1028700021B1028842F00102028004E002884FF692
:10288000FE731A4002807047F0B50C4615461E468E
:102890000021002200230189028B038C4FF6F87778
:1028A000394021434FF6FC473A4040F201173A4382
:1028B0004FF6DD773B404FF6FF7707EA06172F43C9
:1028C0003B43018102830384F0BD30B50246002002
:1028D00000230024158A05EA0103958905EA01040D
:1028E00013B10CB1012000E0002030BD70B50546E9
:1028F0000C46244885420ED0234885420BD0B5F1C2
:10290000804F08D02148854205D02148854202D019
:102910002048854200D100E000BF208850B92389BB
:10292000A28861882846FFF7C5FDE188284600F0A7
:1029300092F825E0208804280AD12389A28861889A
:102940002846FFF7F7FDE188284600F08DF817E0EC
:10295000208808280AD12389A28861882846FFF7A1
:1029600035FEE188284600F08CF809E02389A2882A
:1029700061882846FFF772FEE188284600F08AF851
:1029800070BD0000002C01400034014000040040F4
:1029900000080040000C004000210180418001211E
:1029A00081800021C180018170471AB183890B4366
:1029B000838102E083898B438381704770B5002255
:1029C00000230024058C4EF6FF7635400584038CE9
:1029D0008488828B48F6FF752A404FF6FF452A40CF
:1029E0000D884FF6FF7606EA05252A434DF6FF755A
:1029F0002B400D8906EA05352B434D8806EA05353F
:102A00002B430B4DA84202D00A4DA84208D14BF6E9
:102A1000FF752C408D894FF6FF7606EA85152C430D
:102A200084808283CD88A0F84050038470BD00006C
:102A3000002C0140003401400A460021818B4FF2F6
:102A4000FF7319404FF6FF7303EA02231943818392
:102A5000704781847047028B4FF6F3731A400283EC
:102A6000028B0A4302837047028B4FF2FF331A40F6
:102A70000283028B4FF6FF7303EA01231A4302839A
:102A80007047828B4FF6F3731A408283828B0A431E
:102A900082837047828B4FF2FF331A408283828B8E
:102AA0004FF6FF7303EA01231A4382837047000045
:102AB000002202881D4B98420ED01D4B98420BD02D
:102AC000B0F1804F08D01B4B984205D01A4B98426A
:102AD00002D01A4B984204D14FF68F731A404B889C
:102AE0001A43174B984207D0164B984204D04FF622
:102AF000FF431A40CB881A4302808B8883850B885A
:102B000003850A4B98420BD0094B984208D00E4BD4
:102B1000984205D00D4B984202D00D4B984201D1FE
:102B20000B7A03860123838270470000002C01404A
:102B3000003401400004004000080040000C004048
:102B400000100040001400400040014000440140DB
:102B5000004801404FF6FF71818000210180C18053
:102B600041800172704700007FB505460C46012187
:102B7000C802FFF7ABFAADF80850ADF804400020EA
:102B8000ADF80A00ADF8060001A90D48FFF790FF67
:102B9000012211460A48FFF708FF19208DF80000AE
:102BA00001208DF803008DF8010003208DF802004C
:102BB0006846FEF76DFF01210148FFF759FE7FBD12
:102BC000002C01407CB500BF98480078012820D136
:102BD0000020964908709648006840F0200094490B
:102BE00008600846006840F08000086008460068F9
:102BF00040F4006008600846006840F480500860B7
:102C00008C48008840F001008A490880FEF782FF66
:102C100001E001F085F9FEF7E3FD0446012C01D146
:102C20008549087084480078012875D100208249C0
:102C30000870FEF76FFF01207C49087000207F4973
:102C400008807B48006820F0200079490860084629
:102C5000006820F0800008600846006820F40060EA
:102C600008600846006820F48050086071480088B9
:102C700000F0FE006F490880D6E000BF00F09EFF24
:102C8000044601F053FA1E2001F052F8052C7DD1C4
:102C9000FEF740FFC4E000BF1E2001F049F800F03D
:102CA0008DFF044601F000FB0B2C70D1FEF732FFC4
:102CB000B0E000BF01F0DAFB1E2001F039F800F0AF
:102CC0007DFF04460B2C77D1FEF724FF9CE000BF6C
:102CD00001F0A8FC1E2001F02BF800F06FFF044665
:102CE0000B2C6AD1FEF716FF88E000BF0F210320EE
:102CF000FEF706FC0546FDF7C1FC5149086001F0EE
:102D00007FFD322001F014F800F058FF04460C2C2F
:102D100003D1FEF7FFFEDBE787E0052C6ED1FEF75F
:102D2000F9FE0020474908700A2466E00F210320BD
:102D3000FEF7E6FB0546FDF7A1FC414908601020BF
:102D4000022122460023CDE9001001465820FFF75A
:102D5000D7F800F07BFE3C480078401C3A490870E8
:102D60001E2000F0E5FF38480078C82833DC3749DA
:102D700033480068FDF726FD21D835493048006802
:102D8000FDF716FD1BD82F48007801E049E042E02E
:102D9000401C2C4908700846007896280FDDFEF785
:102DA000B9FE0BE000202849087001F0BDFD00F0DD
:102DB00005FF052802D107E727E020E0F2E72248D7
:102DC0000078142190FBF1F201FB1200012814D1CC
:102DD000601EC4B211E000201B490870FEF79AFE85
:102DE00000F0F2FF40F6B83000F0A2FF4FF4FA60B6
:102DF00000F09EFFFEF78EFE78E797E775E70C2C54
:102E000002D1FEF787FE55E761E70C2C02D1FEF7F1
:102E100081FE41E74DE70C2C02D1FEF77BFE2DE74A
:102E200039E70C2C00D1CFE627E77CBD0400002059
:102E3000000401400C2C014003000020400400402D
:102E4000180000203C0100203D01002000807C444F
:102E500000C0804410B540F225512A4800F075F8B2
:102E600000284ED0274800F02BF927490860274852
:102E7000008800F4004088BB2448008800F48040AB
:102E800070B1084600680A2803D000201F49088056
:102E900024E01E48008840F400401C4908801DE0E2
:102EA000194800680D2806D11848008840F4804071
:102EB0001649088012E01448007814490988C1F3C3
:102EC0000D01134A505411480088401C0F490880D6
:102ED00008460088C72801DD002008800024002063
:102EE00008E00B49095C04EB840201EB4204094948
:102EF0000C60401C05490988C1F30D018142F0DCDA
:102F000000BF10BD00380140880000209400002060
:102F1000400100208C00002021B1828942F400523F
:102F2000828104E082894DF6FF731A4082817047E6
:102F300002460020B1F5007F00D100BF13880B408E
:102F40000BB1012000E00020704770B5024600245C
:102F500000230025002040F66A16B14200D100BFD0
:102F6000C1F3421501F01F03012606FA03F3012DF8
:102F700002D19689334006E0022D02D1168A3340F1
:102F800001E0968A33400C12012606FA04F41688F2
:102F9000344013B10CB1012000E0002070BDF0B549
:102FA0000346002400260025002040F66A17B94297
:102FB00000D100BF1846C1F3421401F01F060127DB
:102FC00007FA06F5012C01D10C3004E0022C01D1E6
:102FD000103000E014301AB107682F43076002E098
:102FE0000768AF430760F0BD2DE9F04786B005469E
:102FF0000E460024A24600BFA1460027B08900B1BA
:1030000000BF2F462C8A4CF6FF700440F088044322
:103010002C82AC894EF6F3100440B0883189084305
:10302000718908430443AC81AC8A4FF6FF400440E9
:10303000B0890443AC8201A8FFF768F81F488742B3
:1030400002D1DDF810A001E0DDF80CA0A88900F4A1
:10305000004040B10AEBCA0000EB0A103168490099
:10306000B0FBF1F807E00AEBCA0000EB0A10316888
:103070008900B0FBF1F86420B8FBF0F004012009EE
:10308000642101FB1089A88900F4004040B132207E
:1030900000EBC900B0FBF1F000F00700044308E0CA
:1030A000322000EB09106421B0FBF1F000F00F00BA
:1030B00004432C8106B0BDE8F087000000380140D1
:1030C00001468888C0F308007047C1F30802828077
:1030D000704700BFFEE770B504460D4629462046FE
:1030E000FFF7F3FF00BF80212046FFF721FF0028F4
:1030F000F9D070BD70B506460C46002500BF615D75
:103100003046FFF7E8FF6D1C605D0028F7D100BF77
:1031100040213046FFF70CFF0028F9D070BD0000B9
:1031200041F6F420074909684242914202DA4142DD
:10313000044A116003490968814201DD01490860C0
:1031400070470000100000200FB4084B10B504A910
:1031500002AA039800F0DEF8044602A9002000F05D
:1031600070FC204610BC5DF814FB0000433A0008D8
:1031700002E008C8121F08C1002AFAD17047704740
:10318000002001E001C1121F002AFBD1704700009E
:103190002DE9FF5F82B00021DDE90430020DDDF88A
:1031A00040B0034318D044F61050A2F2FF3242431D
:1031B0001514119801281FD0A5EB0B00401C5FEAE5
:1031C000000A4FF000064E4FDFF83891B0465046E7
:1031D00015D5CAF1000413E0119801244AA301286F
:1031E00001D16FEA0B010298119AC0E90031C0E9E0
:1031F000024206B0BDE8F09FCBF10000DFE70446D5
:103200000021404A491842EB0450CDE9001012E079
:10321000E00707D032463B4640464946FDF744F9B1
:103220008046894632463B4610461946FDF73CF932
:1032300006460F466410002CEAD1DDE90401DDE901
:103240000023BAF1000F06DAFDF72EF942464B468D
:10325000FDF72AF905E0FDF799F942464B46FDF7DF
:1032600095F904460E460022284BFDF7D9FB03D8FA
:103270004FF0FF30014607E00022254B2046314643
:10328000FDF76BF8FDF7B4FB102409E0002C0ADB16
:103290000A220023FDF7B6FA039B30321A55641E4A
:1032A00050EA0102F2D1641C039AC4F111031444E0
:1032B000119A012A03D0012208430DD10AE00843E4
:1032C00004D000204FF0110B119072E7A3EB0B0517
:1032D0006D1E0DE05B4504DD4FF0000205F10105B8
:1032E00004E003DA4FF00002A5F10105002AECD05A
:1032F00002981199C0E90231C0E9004579E7000060
:10330000000014400000F03F300000000000F043D7
:103310000000E03F2DE9FF4F95B09B4689460646E9
:1033200000250FE2252877D100242746F84A0121FD
:10333000059400E0044316F8013F203B01FA03F036
:103340001042F7D130782A2811D06FF02F0330784F
:10335000A0F13002092A16D8059A44F0020402EBC3
:10336000820203EB42021044761C0590EFE759F805
:10337000042B0592002A03DA504244F400540590CD
:1033800044F00204761C30782E2816D116F8010F6E
:1033900044F004042A280DD06FF02F023078A0F1F9
:1033A0003003092B09D807EB870302EB4303C71847
:1033B000761CF3E759F8047B761C30786C280FD024
:1033C00006DC4C2817D068280DD06A2814D104E0F8
:1033D000742810D07A280FD10DE044F400140AE0CC
:1033E00044F4801401E044F440147278824202D123
:1033F00004F58014761C761C307866280BD013DC1C
:10340000582877D009DC002875D04528F6D0462802
:10341000F4D047281AD19DE118E0632835D06428FC
:1034200079D0652812D195E1702873D008DC67281F
:10343000F1D069286FD06E280DD06F2806D1B5E085
:1034400073282CD0752875D0782874D05A461799CF
:1034500090476D1C75E1C4F30250022809D003287F
:103460000DD0D9F8001004280DD00D6009F1040921
:1034700067E1D9F80010EA17C1E90052F6E7D9F878
:1034800000100D80F2E70D70F0E719F8041B8DF8BD
:10349000001000208DF80100EA46012003E059F8F1
:1034A00004AB4FF0FF3061074FF0000102D40DE094
:1034B00008F101018846B9420FDA8045F8DB1AF8B5
:1034C00008100029F4D108E008F101018846814282
:1034D000FADB1AF808100029F6D105985B46A0EB34
:1034E000080721463846179A00F094FA284400EB62
:1034F000080507E04DE029E10DE01AF8010B5A46F6
:1035000017999047B8F10108F7D25B462146384633
:10351000179A13E142E00A220092C4F302524FF0DC
:10352000000A022A08D059F804CB032A4FEAEC71AA
:103530000AD00DE029E02AE009F1070121F0070295
:10354000F2E802C1914609E00FFA8CFC4FEAEC71F7
:10355000042A03D14FFA8CFC4FEAEC71002907DAF8
:103560000A460021DCF1000C61EB02012D2202E091
:10357000220504D52B228DF80420012203E0E20766
:1035800001D02022F7E7904659E00A2102E01022FC
:103590000DE010214FF0000A00910BE010224FF0D7
:1035A000000A44F004040827009203E008224FF0C8
:1035B000000A0092C4F30252022A05D059F804CB43
:1035C0000021032A08D009E009F1070121F00702D0
:1035D000F2E802C1914605E01FFA8CFC042A01D1F1
:1035E0000CF0FF0C4FF00008220728D5702806D0F9
:1035F000009B83F0100353EA0A0305D00EE040223B
:103600008DF80420012208E05CEA010206D0302295
:103610008DF804208DF8050002229046009B83F06F
:10362000080353EA0A030AD15CEA010201D16207E6
:1036300005D530228DF804204FF001087F1E582850
:1036400004D034A003900EA802900DE036A0F9E754
:1036500053466046009AFDF7D5F884460398825C8D
:103660000298401E029002705CEA0100F0D10298BC
:1036700006A9081A00F1200A600702D524F4803454
:1036800000E00127574502DDA7EB0A0000E000201B
:1036900000EB0A01009005984144401A0590E003B0
:1036A00006D45B462146179A059800F0B3F9054405
:1036B000002706E001A85A46C05D179990476D1C87
:1036C0007F1C4745F6DBE0030CD55B462146179A85
:1036D000059800F09FF9054404E030205A461799F8
:1036E00090476D1C0099481E00900029F5DC08E009
:1036F000029802995A460078491C029117999047FE
:103700006D1CBAF10001AAF1010AF1DC65E10000CB
:1037100009280100303132333435363738396162A7
:10372000636465660000000030313233343536376B
:1037300038394142434445460000000000F058F942
:103740000544761C307800287FF4ECAD19B028468B
:10375000BDE8F08F620700D4062709F1070222F0C6
:10376000070CFCE80223E14603F000485FEA080C7E
:1037700002D00FF2702C0DE05FEA045C02D50FF26C
:10378000682C07E05FEAC47C02D00FF2602C01E0F5
:10379000AFF2700C4FF0FF3823F00043CDF850C06B
:1037A00065280CD006DC452809D046281DD04728BE
:1037B0003DD13DE0662818D067287ED138E0002151
:1037C000112F01DB112000E0781CCDE9000106A9D2
:1037D0000EA8FFF7DDFCDDE90F010E9A0391002131
:1037E000009207F1010A04914DE04FF0004000976C
:1037F000CDE9011006A90EA8FFF7CAFCDDE90F020A
:1038000003920E9B11990022DDF80CA00093049204
:1038100011B9791C00EB010AB7EB0A0004D4C0F11E
:10382000FF3007F1010A0490AAEB0700019044E081
:10383000012F00DA01270021112F01DD112000E006
:103840003846CDE9000106A90EA8FFF7A1FCDDE985
:103850000F010E9A0391002104910092BA462107AC
:103860000CD40399514500DA8A46BAF1010F05DDFF
:10387000009AAAF10101515C302908D0B84202DA5D
:1038800010F1040F06DA0121CDE9011015E0AAF1CB
:103890000101E9E7002805DC049901440491AAEB41
:1038A000000102E0411C514500DD8A460499401A9E
:1038B000401C01904FF000400290200704D4019872
:1038C000504501DBCDF8048000208DF84F000298B0
:1038D0000DF14F07B0F1004F25D02B200E9002982C
:1038E0004FF0020800280CDA404202902D200E9082
:1038F00007E00A210298FCF76FFF3031029007F8C9
:10390000011DB8F10001A8F10108F2DC02980028BD
:10391000EFD1791E0E980870307800F0200040F04A
:10392000450007F8020D12A8C01B00F10708149803
:10393000007800B1012000EB0A01019801EBE07171
:1039400005984144401A401E0590E00306D45B46AA
:103950002146179A059800F05DF805441498007800
:1039600018B15A46179990476D1CE00324D55B4661
:103970002146179A059800F04DF805441CE004987C
:10398000002807DBDDE90301884203DD0098405C85
:10399000179901E0179930205A469047049805F18D
:1039A0000105401C04900198401E019004D12E2076
:1039B0005A46179990476D1CBAF10001AAF1010A05
:1039C000DDDC05E017F8010B5A46179990476D1C8E
:1039D000B8F10001A8F10108F4DC5B462146179A12
:1039E0000598ABE62D0000002B0000002000000031
:1039F0002DE9F041044600251E461746880404D4EC
:103A000005E039462020B0476D1C641EF9D52846D4
:103A1000BDE8F0812DE9F041044600251E469046A0
:103A2000C80301D5302700E02027880404D505E02D
:103A300041463846B0476D1C641EF9D52846BDE89E
:103A4000F0810A68531C0B60107070477CB501232D
:103A5000382200211520FEF70FFA01233922002118
:103A60002320FEF709FA01233A2200213120FEF734
:103A700003FA01233B2200213F20FEF7FDF9012339
:103A80003C2200214D20FEF7F7F901233D220021C1
:103A90005B20FEF7F1F901233E2200216920FEF7A9
:103AA000EBF901233F2210210020FEF7E5F9012365
:103AB000402210210E20FEF7DFF9012341221021C0
:103AC0001C20FEF7D9F901231C2210212E20FEF71D
:103AD000D3F901231C2210213520FEF7CDF9012353
:103AE0001C2210213C20FEF7C7F901231C221021C3
:103AF0004320FEF7C1F901231C2210214A20FEF7C2
:103B0000BBF901231C2210215120FEF7B5F9012336
:103B10000C2220210E20FEF7AFF901232B222021B9
:103B20001C20FEF7A9F901232C2220212A20FEF7D0
:103B3000A3F90123242220213820FEF79DF9012337
:103B4000252220214620FEF797F901232D2220214E
:103B50005420FEF791F901232E2220216220FEF746
:103B60008BF9012010234122302100901820FEF70C
:103B7000EDF8012010234422302100902020FEF790
:103B8000E5F8012010234322302100902820FEF781
:103B9000DDF809480068FCF79CFD04460B46102040
:103BA00004212246CDE9001030214E20FEF7A8F96D
:103BB000FEF7A6F87CBD00001800002010B51548DF
:103BC000007808B31448006838B11348183000680A
:103BD00018B111481C300068B0B900200D490870B8
:103BE000322000F0A5F80C48006808B9052010BD87
:103BF00009481830006808B90B20F8E706481C305F
:103C0000006820B90C20F2E701200249087000206A
:103C1000EDE700009E0000201401214201462D48DE
:103C2000006828B92C480088401C2B4A108002E00C
:103C30000020294A10802748006828B927480078C2
:103C400010B90120254A107025480078B0B92348E2
:103C50000078012807D123480078401C214A1070C1
:103C600001201F4A10701F480078022806D100204A
:103C70001C4A10701C4A10800220704715480068CA
:103C8000012804D10020154A1070154A10701548FB
:103C9000007801281CD114480088401C124A10806A
:103CA0001046008888420ADD0B480088884206DA00
:103CB00000200C4A10700C4A10800120DDE70648F5
:103CC0000088884204DD0020064A1070064A1080F1
:103CD0000020D2E7080121429C000020960000202D
:103CE00097000020980000209A00002010B56FF087
:103CF0000400FEF799FB0A4800680A49B0FBF1F09E
:103D0000094908700846007800EB4001C1EBC0107B
:103D10004FF6FF7101EAC0000449088010BD0000A1
:103D20005C00002000127A00840000208600002041
:103D30000146114A12884A434FF0E0235A6100229B
:103D40009A611A46126942F001021A6100BF4FF0EF
:103D5000E022106900F001021AB100F48032002A5A
:103D6000F5D04FF0E022126922F001024FF0E0237B
:103D70001A6100229A617047860000200146114AAC
:103D800012784A434FF0E0235A6100229A611A46A2
:103D9000126942F001021A6100BF4FF0E02210697F
:103DA00000F001021AB100F48032002AF5D04FF081
:103DB000E022126922F001024FF0E0231A61002292
:103DC0009A6170478400002010B501230E22102153
:103DD0001820FEF70FF801230F2210212820FEF7EC
:103DE00009F80123102211463820FEF703F80123B9
:103DF000112210214820FDF7FDFF0123122210217E
:103E00005820FDF7F7FF0123132220211820FDF78A
:103E1000F1FF0123142220212820FDF7EBFF0123CD
:103E2000152220213820FDF7E5FF01230022202163
:103E30004820FDF7DFFF01231A4620215820FDF717
:103E4000D9FFFDF75DFF10BD1CB50220FDF710FC8A
:103E50000120FDF70DFC4FF4A060FDF751FEFFF7C8
:103E600045FF4FF47A70FFF763FF4FF47A70FFF766
:103E70005FFFFDF79DFCFDF731FDFDF797FE4FF469
:103E8000E13000F0A9FD002141F61F40FDF7B0FD33
:103E9000FDF7E0F9FCF70EFF41F61F413120FEF778
:103EA00063FE19E00D480E490E4B0F4ACDE9001094
:103EB0000E490F48FFF748F90D490E48FFF71AF968
:103EC000FCF774FFFEF77EFE01200B49087000BF6F
:103ED000094800780028FBD1E4E7000044060020F0
:103EE000300600201C06002008060020CC8D0008AB
:103EF0005806002000380140020000200146002939
:103F000001DA484200E00846704710B50246012039
:103F100000E050430B1EA1F10104E1B2F9D110BD44
:103F20007CB569A200210846FEF75DF8684969483A
:103F30000068FCF7A2F90646FCF7B2FBC31704467B
:103F40000C2006212246CDE9001000212820FDF793
:103F5000D7FF61A20A210020FEF745F85C496048BE
:103F60000068FCF78AF90646FCF79AFBC31704467B
:103F70000C2006212246CDE900100A212820FDF759
:103F8000BFFF58A214210020FEF72DF85748006803
:103F9000FCF786FBC31704460C2004212246CDE91A
:103FA000001014213220FDF7ABFF51A21E2100208A
:103FB000FEF719F850480068FCF772FBC317044677
:103FC0000C2004212246CDE900101E213220FDF7ED
:103FD00097FF4AA228215020FEF705F80C20052162
:103FE000CDE9001046480268D31728215F20FDF76D
:103FF00087FF44A228210020FDF7F5FF43A22821D6
:104000002920FDF7F0FF42A228213F20FDF7EBFF1A
:1040100040480068642190FBF1F0C31704460C206F
:1040200002212246CDE9001028211C20FDF768FF5F
:1040300038480068642190FBF1F201FB1200C317BD
:1040400004460C2002212246CDE90010282133200D
:10405000FDF756FF2F480068642190FBF1F201FB49
:1040600012000A2809DA0C20022100221346CDE9A9
:10407000001028212D20FDF743FF27A232215020D8
:10408000FDF7B1FF0C200521CDE90010234802689F
:10409000D31732215F20FDF733FF21A23221002008
:1040A000FDF7A1FF20480068FCF713FB04460B4610
:1040B0000C2004212246CDE9001032211E20FDF7FC
:1040C0001FFFFDF71DFE7CBD4D2D503A0000000086
:1040D0000000C8421C0000204D2D533A0000000093
:1040E00020000020532D503A000000002400002042
:1040F000532D533A0000000028000020543A0000DD
:104100000C000020564F4C3A000000002E0000002A
:104110005600000014000020503A00000800002063
:104120004144433A000000001800002010B501236C
:10413000002211461C20FDF79FFE01231A46002194
:104140002A20FDF799FE0123022200213820FDF7E5
:1041500093FE0123032200214620FDF78DFE01235B
:10416000042200215420FDF787FE012305220021AF
:104170006220FDF781FE0123062200217020FDF759
:104180007BFE0123072210210020FDF775FE01238D
:10419000082210210E20FDF76FFE012309221021B5
:1041A0001C20FDF769FE01230A2210212A20FDF7B9
:1041B00063FE01230B2210213820FDF75DFE012351
:1041C0000C2210214620FDF757FE01230D2210215D
:1041D0005420FDF751FE01230E2210216220FDF72D
:1041E0004BFE01230F2210217020FDF745FE012315
:1041F000102220210020FDF73FFE01231122202163
:104200000E20FDF739FE0123122220211C20FDF78C
:1042100033FE0123132220212A20FDF72DFE012346
:10422000142220213820FDF727FE0123152220210A
:104230004620FDF721FE0123162220215420FDF700
:104240001BFE0123172220216220FDF715FE01230A
:10425000182220217020FDF70FFE012319223021A2
:104260000020FDF709FE01231A2230210E20FDF760
:1042700003FE01231B2230211C20FDF7FDFD01233D
:104280001C2230212A20FDF7F7FD01231C223021BA
:104290002E20FDF7F1FD01231C2230213220FDF7F5
:1042A000EBFDFDF72DFD10BD10B501230C22002103
:1042B0000846FDF7E1FD01231D2200210E20FDF738
:1042C000DBFD01231E2200211C20FDF7D5FD01236B
:1042D0001F2200212A20FDF7CFFD012320220021EB
:1042E0003820FDF7C9FD0123212200214620FDF7DA
:1042F000C3FD0123222200215420FDF7BDFD01232F
:104300000B2200216220FDF7B7FD012323220021AB
:104310007020FDF7B1FD0123242210210020FDF7BC
:10432000ABFD0123252210210E20FDF7A5FD012361
:10433000262210211C20FDF79FFD0123272210219A
:104340002A20FDF799FD0123282210213820FDF7AE
:1043500093FD0123292210214620FDF78DFD012325
:104360002A2210215420FDF787FD01232B22102142
:104370006220FDF781FD01232C2210217020FDF722
:104380007BFD01232D2220210020FDF775FD012357
:104390002E2220210E20FDF76FFD01231322202164
:1043A0001C20FDF769FD01232F2220212A20FDF783
:1043B00063FD0123302220213820FDF75DFD01231C
:1043C000312220214620FDF757FD012332222021F2
:1043D0005420FDF751FD0123332220216220FDF7F7
:1043E0004BFD0123182220217020FDF745FD0123FC
:1043F000292230210020FDF73FFD01233422302106
:104400000E20FDF739FD0123352230211C20FDF758
:1044100033FD0123182230212A20FDF72DFD012331
:10442000192230213820FDF727FD012336223021C3
:104430004620FDF721FD0123372230215420FDF7CE
:104440001BFD01231C2230216220FDF715FD0123F5
:104450001C2230216620FDF70FFD01231C22302194
:104460006A20FDF709FDFDF74BFC10BD10B50123D7
:10447000422200210846FDF7FFFC012343220021D0
:104480000E20FDF7F9FC0123442200211C20FDF73A
:10449000F3FC0123242200212A20FDF7EDFC012357
:1044A000252200213820FDF7E7FC012345220021C9
:1044B0004620FDF7E1FC0123022200215420FDF7F4
:1044C000DBFC0123032200216220FDF7D5FC012340
:1044D000042200217020FDF7CFFC01234622102189
:1044E0000020FDF7C9FC0123472210210E20FDF713
:1044F000C3FC0123482210211C20FDF7BDFC012331
:10450000492210212A20FDF7B7FC01234A2210215D
:104510003820FDF7B1FC01234B2210214620FDF786
:10452000ABFC01234C2210215420FDF7A5FC0123F4
:104530004D2210216220FDF79FFC01234E22102105
:104540007020FDF799FC01234F2220210020FDF768
:1045500093FC0123502220210E20FDF78DFC012326
:104560000B2220211C20FDF787FC01235122202152
:104570002A20FDF781FC0123332220213820FDF77A
:104580007BFC01233C2220214620FDF775FC012302
:104590003D2220215420FDF76FFC012352222021CF
:1045A0006220FDF769FC0123532220217020FDF7D2
:1045B00063FC0123542230210020FDF75DFC012320
:1045C000552230210E20FDF757FC01234D223021CA
:1045D0001C20FDF751FC01234E2230212A20FDF73B
:1045E0004BFC0123562230213820FDF745FC0123E6
:1045F000572230214620FDF73FFC01234C22302179
:104600005420FDF739FC0123582230216220FDF7A8
:1046100033FC0123592230217020FDF72DFCFDF7DA
:104620006FFB10BD10B50123232200210846FDF7C2
:1046300023FC01235A2200210E20FDF71DFC01233B
:10464000242200211C20FDF717FC01232522002134
:104650002A20FDF711FC0123262200213820FDF736
:104660000BFC0123272200214620FDF705FC012336
:10467000282200215420FDF7FFFB012329220021DD
:104680006220FDF7F9FB01235B2200217020FDF77A
:10469000F3FB01235C2210210020FDF7EDFB012339
:1046A0005D2210210920FDF7E7FB01235E22102186
:1046B0001220FDF7E1FB01234C2210211B20FDF706
:1046C000DBFB01235F2210212920FDF7D5FB01230D
:1046D000392210213720FDF7CFFB01236022102162
:1046E0004520FDF7C9FB0123612210214E20FDF773
:1046F000C3FB0123602210215720FDF7BDFB0123DE
:10470000612210216020FDF7B7FB012363221021F5
:104710006920FDF7B1FB0123602220210020FDF775
:10472000ABFB0123612220210920FDF7A5FB01231A
:10473000622220211220FDF79FFB0123612220210C
:104740001B20FDF799FB0123642220212420FDF783
:1047500093FB0123572220213220FDF78DFB0123FB
:104760000B2220214020FDF787FB0123512220212D
:104770004E20FDF781FB0123332220215C20FDF731
:104780007BFB01234F2220216A20FDF775FB0123CB
:10479000652230210020FDF76FFB012349223021E3
:1047A0000E20FDF769FB01234A2230211C20FDF772
:1047B00063FB01234B2230212A20FDF75DFB0123FF
:1047C0004C2230213820FDF757FB01234D223021A8
:1047D0004620FDF751FB01234E2230215420FDF7E6
:1047E0004BFB0123132230216220FDF745FB0123FF
:1047F0003C2230217020FDF73FFBFDF781FA10BD10
:104800007CB501233D2200210846FDF735FB01233D
:10481000312200210E20FDF72FFB0123662200210B
:104820001C20FDF729FB0123332200212A20FDF75C
:1048300023FB0123142200213820FDF71DFB012357
:10484000152200214620FDF717FB01231622002127
:104850005420FDF711FB0123172200216220FDF7F0
:104860000BFB0123182200217020FDF705FB01231B
:10487000192210210020FDF7FFFA012367221021E1
:104880000E20FDF7F9FA0123682210211C20FDF704
:10489000F3FA0123072210212A20FDF7EDFA012364
:1048A000082210213820FDF7E7FA01231C221021ED
:1048B0004620FDF7E1FA01231C2210214A20FDF7D2
:1048C000DBFA01231C2210214E20FDF7D5FA01202E
:1048D00010234122282100901820FDF737FA0120EB
:1048E00010234422282100902020FDF72FFA0120D8
:1048F00010234322282100900846FDF727FA094893
:104900000068FBF7E6FE04460B4610200421224611
:10491000CDE9001028214E20FDF7F2FAFDF7F0F95D
:104920007CBD00001800002010B5012300220421E6
:104930002020FDF75FFA01231A4604213020FDF7FD
:1049400059FA0123022204214020FDF753FA0123E2
:10495000032204215020FDF74DFA012304221821DF
:104960000846FDF747FA0123052218212820FDF704
:1049700041FA0123062218213820FDF73BFA0123D2
:10498000072218214820FDF735FA012308221821B3
:104990005820FDF72FFA0123092218216820FDF77E
:1049A00029FA01230A222C210020FDF723FA0123F2
:1049B0000B222C211020FDF71DFA01230C222C21A3
:1049C0002020FDF717FA01230D222C213020FDF7BE
:1049D00011FAFDF795F910BD10B586B00446012116
:1049E00044F20400FDF772FB4FF40070ADF81400C0
:1049F00003208DF8160018208DF8170005A91C4813
:104A0000FCF7A6FC4FF48060ADF8140004208DF88C
:104A1000170005A91648FCF79BFC25208DF800001F
:104A200001208DF801008DF802008DF80300684622
:104A3000FDF72EF801940020ADF80800ADF80A004B
:104A4000ADF80C00ADF810000C20ADF80E0001A977
:104A50000848FEF7C9FA012240F225510548FEF741
:104A60009EFA01210348FEF757FA06B010BD000078
:104A70000008014000380140000000000000000074
:104A800000000000000000003F40000000000000A7
:104A900000003000400030004000000009000BC062
:104AA0003D000BC03D00090018C024407FE02240BB
:104AB00031800000180024C01B000D8032400180AE
:104AC00003801C4027401C8007400040100060000D
:104AD00000000000000000000000000000001F8037
:104AE000204040200000402020401F8000000000A7
:104AF000090006001F8006000900000004000400F1
:104B00003F8004000400000000100060000000006E
:104B10000000000004000400040004000400000081
:104B2000000000400000000000000000002001C064
:104B300006003800400000001F8020402040204038
:104B40001F800000000010403FC000400000000037
:104B500018C021402240244018400000108020400E
:104B6000244024401B80000002000D0011003FC0C3
:104B7000014000003C802440244024402380000069
:104B80001F80244024403440038000003000200077
:104B900027C03800200000001B802440244024400F
:104BA0001B8000001C0022C0224022401F80000009
:104BB00000000000084000000000000000000000AD
:104BC0000460000000000000000004000A00110062
:104BD0002080404009000900090009000900000088
:104BE00000004040208011000A000400180020004E
:104BF00023402400180000001F8020402740294047
:104C00001F400000004007C039000F0001C00040F5
:104C100020403FC0244024401B8000001F802040D3
:104C2000204020403080000020403FC020402040F5
:104C30001F80000020403FC024402E4030C00000B4
:104C400020403FC024402E00300000000F001080A4
:104C5000204022403380020020403FC00400040076
:104C60003FC02040204020403FC020402040000066
:104C70000060202020203FC02000200020403FC0B6
:104C800024400B0030C0204020403FC02040004066
:104C9000004000C03FC03C0003C03C003FC00000DB
:104CA00020403FC00C4023003FC020001F80204018
:104CB000204020401F80000020403FC024402400AE
:104CC000180000001F802140214020E01FA00000AC
:104CD00020403FC02440260019C0004018C0244096
:104CE0002440224031800000300020403FC020405E
:104CF0003000000020003F80004000403F80200046
:104D000020003E0001C0070038002000380007C026
:104D10003C0007C038000000204039C0060039C000
:104D2000204000002000384007C03840200000002C
:104D3000304021C02640384020C000000000000064
:104D40007FE0402040200000000070000C00038045
:104D5000004000000000402040207FE000000000F4
:104D600000002000400020000000000000100010A3
:104D700000100010001000100000000040000000B3
:104D800000000000000002800540054003C0004014
:104D900020003FC004400440038000000000038066
:104DA000044004400640000000000380044024400A
:104DB0003FC0004000000380054005400340000064
:104DC000000004401FC0244024402000000002E0F6
:104DD000055005500650042020403FC00440040008
:104DE00003C000400000044027C000400000000055
:104DF00000100010041027E00000000020403FC019
:104E00000140070004C00440204020403FC0004053
:104E10000040000007C0040007C0040003C00000F9
:104E2000044007C00440040003C0004000000380A9
:104E30000440044003800000041007F004500440C4
:104E400003800000000003800440045007F00010BD
:104E5000044007C0024004000400000000000640B7
:104E60000540054004C00000000004001F8004400D
:104E700000400000040007800040044007C00040DC
:104E80000400070004C0018006000400060001C001
:104E9000070001C006000000044006C0010006C073
:104EA000044000000410071004E001800600040024
:104EB0000000044005C0064004400000000000005F
:104EC00004007BE040200000000000000000FFF034
:104ED00000000000000040207BE004000000000013
:104EE0004000800040002000200040000000000042
:104EF00000000000000000000000000000000000B2
:104F000000001FCC000C00000000000000000800A2
:104F1000300060000800300060000000022003FC48
:104F20001E20022003FC1E200220000000000E189C
:104F300011043FFF10840C78000000000F00108463
:104F40000F3800C0077818840078000000780F84BC
:104F500010C411240E9800E40084000808006800C2
:104F600070000000000000000000000000000000D1
:104F7000000007E018182004400200000000400272
:104F80002004181807E00000000000000240024062
:104F900001800FF00180024002400000008000808C
:104FA00000800FF800800080008000000001000DEC
:104FB000000E000000000000000000000000008063
:104FC0000080008000800080008000800000000CD5
:104FD000000C0000000000000000000000000006BF
:104FE000001800600180060018002000000007F093
:104FF000080810041004080807F000000000080466
:1050000008041FFC000400040000000000000E0C57
:1050100010141024104411840E0C000000000C1811
:1050200010041104110412880C700000000000E04C
:105030000320042408241FFC0024000000001F9803
:10504000108411041104108810700000000007F093
:1050500008881104110418880070000000001C006A
:10506000100010FC13001C001000000000000E389F
:1050700011441084108411440E3800000000070011
:10508000088C10441044088807F00000000000005D
:105090000000030C030C00000000000000000000F2
:1050A0000001010600000000000000000000008078
:1050B0000140022004100808100400000220022011
:1050C0000220022002200220022000000000100422
:1050D00008080410022001400080000000000E00BB
:1050E0001200100C106C10800F00000003E00C1870
:1050F00013E4142417C4082807D000000004003C5F
:1051000003C41C40074000E4001C000410041FFC02
:105110001104110411040E880070000003E00C1843
:1051200010041004100410081C10000010041FFCD0
:10513000100410041004080807F0000010041FFCFD
:105140001104110417C410040818000010041FFCF7
:105150001104110017C010000800000003E00C1833
:105160001004100410441C780040000010041FFCC0
:1051700010840080008010841FFC100400001004C4
:1051800010041FFC100410040000000000030001C4
:10519000100110011FFE10001000000010041FFC81
:1051A000110403801464181C1004000010041FFC78
:1051B0001004000400040004000C000010041FFC94
:1051C0001F0000FC1F001FFC1004000010041FFC47
:1051D0000C04030000E010181FFC100007F0080882
:1051E000100410041004080807F0000010041FFC4D
:1051F00010841080108010800F00000007F0081845
:1052000010241024101C080A07F2000010041FFCD0
:105210001104110011C011300E0C000400000E1C0E
:1052200011041084108410441C3800001800100071
:1052300010041FFC100410001800000010001FF8DC
:1052400010040004000410041FF8100010001E00D9
:1052500011E0001C007013801C0010001FC0103CE7
:1052600000E01F0000E0103C1FC000001004180CFC
:10527000163401C001C01634180C100410001C00B4
:10528000130400FC13041C00100000000804101C90
:105290001064108413041C041018000000000000A7
:1052A00000007FFE4002400240020000000030008B
:1052B0000C0003800060001C00030000000040029E
:1052C000400240027FFE00000000000000000000DD
:1052D00020004000400040002000000000010001CC
:1052E0000001000100010001000100010000400078
:1052F00040002000000000000000000000000098B6
:10530000012401440144014400FC000410001FFC7E
:105310000088010401040088007000000000007093
:1053200000880104010401040088000000000070EE
:1053300000880104010411081FFC0004000000F8AB
:10534000014401440144014400C80000000001047C
:1053500001040FFC1104110411001800000000D614
:1053600001290129012901C90106000010041FFCBF
:10537000008401000100010400FC0004000001049D
:10538000190419FC000400040000000000000003E0
:1053900000010101190119FE0000000010041FFCAA
:1053A0000024004001B4010C0104000000001004BE
:1053B00010041FFC0004000400000000010401FCB4
:1053C0000104010001FC0104010000FC010401FCD6
:1053D000008401000100010400FC0004000000F84A
:1053E000010401040104010400F80000010101FFAF
:1053F00000850104010400880070000000000070B6
:10540000008801040104010501FF000101040104F9
:1054100001FC00840104010001800000000000CCB8
:10542000012401240124012401980000000001004E
:10543000010007F80104010400000000010001F868
:10544000000400040004010801FC000401000180C4
:105450000170000C001001600180010001F0010CDE
:10546000003001C00030010C01F001000000010417
:10547000018C00740170018C0104000001010181A4
:105480000171000E0018016001800100000001841C
:10549000010C013401440184010C000000000000F3
:1054A0000000000001003EFC40024002000000003D
:1054B00000000000FFFF00000000000000004002AC
:1054C00040023EFC010000000000000000006000FF
:1054D000800080004000400020002000020000000A
:1054E0000000000042000000000000003300000047
:1054F000FC000000000000000800000000000000A8
:10550000110000007F000000FE00000041000000CC
:105510000000000049000000780000004900000081
:10552000480000007F000000480000004900000023
:1055300048000000490000007A000000410000001F
:10554000010000007F000000FE00000000000000DD
:10555000000000000000000000000000200000002B
:1055600000000000220000000000000022000000F7
:10557000000000002200000000000000FA0000000F
:1055800000000000220000000000000023000000D6
:10559000FF000000220000000000000022000000C8
:1055A000000000002200000010000000FA000000CF
:1055B000080000002200000010000000230000008E
:1055C000E0000000200000000000000020000000BB
:1055D00000000000000000000000000000000000CB
:1055E0000100000000000000060000001F00000095
:1055F000F800000011000000000000001100000091
:10560000080000001100000004000000110000006C
:10561000F800000010000000010000001000000071
:1056200002000000FF0000008400000010000000E5
:10563000680000009000000018000000500000000A
:105640006400000013000000820000001000000051
:105650001F0000000000000000000000100000001B
:1056600008000000100000000C0000001000000006
:10567000080000001F000000F800000010000000FB
:1056800010000000100000001100000010000000D9
:1056900012000000080000000C00000008000000DC
:1056A00070000000FF000000800000000800000003
:1056B00002000000080000000100000008000000D7
:1056C000020000000F000000FC00000000000000CD
:1056D00000000000000000000000000008000000C2
:1056E0004000000008000000420000000800000028
:1056F00081000000FF000000FE0000000900000023
:10570000000000000400000000000000190000007C
:105710000100000011000000210000001100000045
:10572000D20000009700000014000000710000008B
:10573000080000001100000014000000110000002B
:10574000E200000015000000010000001900000048
:105750000000000000000000000000004000000009
:1057600000000000400000000000000040000000B9
:1057700000000000400000000000000040000000A9
:105780000000000040000000000000007F0000005A
:10579000FF0000004000000000000000400000008A
:1057A0000000000042000000000000004100000076
:1057B00000000000400000008000000040000000E9
:1057C00060000000400000000000000040000000F9
:1057D00000000000000000000000000000000000C9
:1057E0000100000000000000060000007F00000033
:1057F000F8000000440000004000000044000000E9
:105800004000000044000000400000004400000090
:10581000400000007F000000FE0000004400000087
:105820004000000044000000400000004400000070
:105830004200000044000000410000007F00000022
:10584000FE0000000000000000000000000000005A
:105850000000000000000000000000000000000048
:105860000000000000000000010000000000000037
:10587000060000001F000000F800000010000000FB
:105880008000000010000000800000009000000078
:105890008000000070000000800000001000000088
:1058A00080000000100000008000000010000000D8
:1058B0008000000010000000800000001F000000B9
:1058C000C000000000000000000000000000000018
:1058D00000000000000000000000000008000000C0
:1058E0004000000008000000420000000800000026
:1058F00081000000FF000000FE0000000900000021
:10590000000000000400000000000000190000007A
:105910000100000011000000210000001100000043
:10592000D200000097000000140000007100000089
:105930000800000011000000140000001100000029
:10594000E200000015000000010000001900000046
:105950000000000000000000000000000200000045
:10596000800000000C00000080000000F700000034
:10597000FE0000002400000084000000240000005D
:105980008A00000001000000640000002700000001
:105990001800000039000000E400000008000000CA
:1059A000220000002A000000A20000002A000000DF
:1059B000A2000000FF000000FA0000002A00000022
:1059C000A20000003E000000A2000000080000004D
:1059D00022000000000000000000000002000000A3
:1059E0000000000002000000020000004200000071
:1059F0000400000033000000F80000000000000078
:105A0000040000000100000002000000110000007E
:105A10000A0000001100000032000000FF0000003A
:105A2000C200000011000000020000001100000090
:105A300002000000FF000000FA000000110000005A
:105A40000200000011000000020000000100000040
:105A50000200000000000000000000000000000044
:105A60000100000000000000020000000000000033
:105A7000040000000000000008000000000000001A
:105A80003000000080000000C0000000470000005F
:105A900000000000380000000000000007000000C7
:105AA0000000000000000000C00000000000000036
:105AB00030000000000000000C00000000000000AA
:105AC00002000000000000000100000000000000D3
:105AD00001000000000000000000000000000000C5
